{
  "contractName": "LuxuryWatch",
  "abi": [
    {
      "inputs": [],
      "stateMutability": "nonpayable",
      "type": "constructor"
    },
    {
      "inputs": [
        {
          "internalType": "address",
          "name": "sender",
          "type": "address"
        },
        {
          "internalType": "uint256",
          "name": "tokenId",
          "type": "uint256"
        },
        {
          "internalType": "address",
          "name": "owner",
          "type": "address"
        }
      ],
      "name": "ERC721IncorrectOwner",
      "type": "error"
    },
    {
      "inputs": [
        {
          "internalType": "address",
          "name": "operator",
          "type": "address"
        },
        {
          "internalType": "uint256",
          "name": "tokenId",
          "type": "uint256"
        }
      ],
      "name": "ERC721InsufficientApproval",
      "type": "error"
    },
    {
      "inputs": [
        {
          "internalType": "address",
          "name": "approver",
          "type": "address"
        }
      ],
      "name": "ERC721InvalidApprover",
      "type": "error"
    },
    {
      "inputs": [
        {
          "internalType": "address",
          "name": "operator",
          "type": "address"
        }
      ],
      "name": "ERC721InvalidOperator",
      "type": "error"
    },
    {
      "inputs": [
        {
          "internalType": "address",
          "name": "owner",
          "type": "address"
        }
      ],
      "name": "ERC721InvalidOwner",
      "type": "error"
    },
    {
      "inputs": [
        {
          "internalType": "address",
          "name": "receiver",
          "type": "address"
        }
      ],
      "name": "ERC721InvalidReceiver",
      "type": "error"
    },
    {
      "inputs": [
        {
          "internalType": "address",
          "name": "sender",
          "type": "address"
        }
      ],
      "name": "ERC721InvalidSender",
      "type": "error"
    },
    {
      "inputs": [
        {
          "internalType": "uint256",
          "name": "tokenId",
          "type": "uint256"
        }
      ],
      "name": "ERC721NonexistentToken",
      "type": "error"
    },
    {
      "inputs": [
        {
          "internalType": "uint256",
          "name": "available",
          "type": "uint256"
        },
        {
          "internalType": "uint256",
          "name": "required",
          "type": "uint256"
        }
      ],
      "name": "InsufficientFunds",
      "type": "error"
    },
    {
      "inputs": [
        {
          "internalType": "address",
          "name": "owner",
          "type": "address"
        },
        {
          "internalType": "address",
          "name": "caller",
          "type": "address"
        }
      ],
      "name": "NotOwner",
      "type": "error"
    },
    {
      "inputs": [
        {
          "internalType": "address",
          "name": "caller",
          "type": "address"
        },
        {
          "internalType": "uint256",
          "name": "tokenId",
          "type": "uint256"
        }
      ],
      "name": "NotTokenOwner",
      "type": "error"
    },
    {
      "inputs": [
        {
          "internalType": "address",
          "name": "owner",
          "type": "address"
        }
      ],
      "name": "OwnableInvalidOwner",
      "type": "error"
    },
    {
      "inputs": [
        {
          "internalType": "address",
          "name": "account",
          "type": "address"
        }
      ],
      "name": "OwnableUnauthorizedAccount",
      "type": "error"
    },
    {
      "inputs": [
        {
          "internalType": "uint256",
          "name": "requestedPrice",
          "type": "uint256"
        },
        {
          "internalType": "uint256",
          "name": "currentPrice",
          "type": "uint256"
        }
      ],
      "name": "PriceTooLow",
      "type": "error"
    },
    {
      "inputs": [
        {
          "internalType": "uint256",
          "name": "tokenId",
          "type": "uint256"
        }
      ],
      "name": "TokenNotExist",
      "type": "error"
    },
    {
      "inputs": [
        {
          "internalType": "address",
          "name": "caller",
          "type": "address"
        }
      ],
      "name": "Unauthorized",
      "type": "error"
    },
    {
      "anonymous": false,
      "inputs": [
        {
          "indexed": true,
          "internalType": "address",
          "name": "owner",
          "type": "address"
        },
        {
          "indexed": true,
          "internalType": "address",
          "name": "approved",
          "type": "address"
        },
        {
          "indexed": true,
          "internalType": "uint256",
          "name": "tokenId",
          "type": "uint256"
        }
      ],
      "name": "Approval",
      "type": "event"
    },
    {
      "anonymous": false,
      "inputs": [
        {
          "indexed": true,
          "internalType": "address",
          "name": "owner",
          "type": "address"
        },
        {
          "indexed": true,
          "internalType": "address",
          "name": "operator",
          "type": "address"
        },
        {
          "indexed": false,
          "internalType": "bool",
          "name": "approved",
          "type": "bool"
        }
      ],
      "name": "ApprovalForAll",
      "type": "event"
    },
    {
      "anonymous": false,
      "inputs": [
        {
          "indexed": true,
          "internalType": "uint256",
          "name": "tokenId",
          "type": "uint256"
        },
        {
          "indexed": true,
          "internalType": "address",
          "name": "approved",
          "type": "address"
        },
        {
          "indexed": false,
          "internalType": "uint256",
          "name": "price",
          "type": "uint256"
        }
      ],
      "name": "ApprovalForSale",
      "type": "event"
    },
    {
      "anonymous": false,
      "inputs": [
        {
          "indexed": true,
          "internalType": "address",
          "name": "previousOwner",
          "type": "address"
        },
        {
          "indexed": true,
          "internalType": "address",
          "name": "newOwner",
          "type": "address"
        }
      ],
      "name": "OwnershipTransferred",
      "type": "event"
    },
    {
      "anonymous": false,
      "inputs": [
        {
          "indexed": true,
          "internalType": "address",
          "name": "from",
          "type": "address"
        },
        {
          "indexed": true,
          "internalType": "address",
          "name": "to",
          "type": "address"
        },
        {
          "indexed": true,
          "internalType": "uint256",
          "name": "tokenId",
          "type": "uint256"
        }
      ],
      "name": "Transfer",
      "type": "event"
    },
    {
      "anonymous": false,
      "inputs": [
        {
          "indexed": true,
          "internalType": "uint256",
          "name": "tokenId",
          "type": "uint256"
        },
        {
          "indexed": false,
          "internalType": "string",
          "name": "name",
          "type": "string"
        },
        {
          "indexed": false,
          "internalType": "string",
          "name": "model",
          "type": "string"
        },
        {
          "indexed": false,
          "internalType": "string",
          "name": "serialNumber",
          "type": "string"
        }
      ],
      "name": "WatchNFTCreated",
      "type": "event"
    },
    {
      "anonymous": false,
      "inputs": [
        {
          "indexed": true,
          "internalType": "uint256",
          "name": "tokenId",
          "type": "uint256"
        },
        {
          "indexed": false,
          "internalType": "address",
          "name": "from",
          "type": "address"
        },
        {
          "indexed": false,
          "internalType": "address",
          "name": "to",
          "type": "address"
        },
        {
          "indexed": false,
          "internalType": "uint256",
          "name": "price",
          "type": "uint256"
        }
      ],
      "name": "WatchNFTSold",
      "type": "event"
    },
    {
      "inputs": [
        {
          "internalType": "address",
          "name": "to",
          "type": "address"
        },
        {
          "internalType": "uint256",
          "name": "tokenId",
          "type": "uint256"
        }
      ],
      "name": "approve",
      "outputs": [],
      "stateMutability": "nonpayable",
      "type": "function"
    },
    {
      "inputs": [
        {
          "internalType": "address",
          "name": "owner",
          "type": "address"
        }
      ],
      "name": "balanceOf",
      "outputs": [
        {
          "internalType": "uint256",
          "name": "",
          "type": "uint256"
        }
      ],
      "stateMutability": "view",
      "type": "function"
    },
    {
      "inputs": [
        {
          "internalType": "uint256",
          "name": "tokenId",
          "type": "uint256"
        }
      ],
      "name": "getApproved",
      "outputs": [
        {
          "internalType": "address",
          "name": "",
          "type": "address"
        }
      ],
      "stateMutability": "view",
      "type": "function"
    },
    {
      "inputs": [
        {
          "internalType": "address",
          "name": "owner",
          "type": "address"
        },
        {
          "internalType": "address",
          "name": "operator",
          "type": "address"
        }
      ],
      "name": "isApprovedForAll",
      "outputs": [
        {
          "internalType": "bool",
          "name": "",
          "type": "bool"
        }
      ],
      "stateMutability": "view",
      "type": "function"
    },
    {
      "inputs": [],
      "name": "name",
      "outputs": [
        {
          "internalType": "string",
          "name": "",
          "type": "string"
        }
      ],
      "stateMutability": "view",
      "type": "function"
    },
    {
      "inputs": [],
      "name": "owner",
      "outputs": [
        {
          "internalType": "address",
          "name": "",
          "type": "address"
        }
      ],
      "stateMutability": "view",
      "type": "function"
    },
    {
      "inputs": [
        {
          "internalType": "uint256",
          "name": "tokenId",
          "type": "uint256"
        }
      ],
      "name": "ownerOf",
      "outputs": [
        {
          "internalType": "address",
          "name": "",
          "type": "address"
        }
      ],
      "stateMutability": "view",
      "type": "function"
    },
    {
      "inputs": [],
      "name": "renounceOwnership",
      "outputs": [],
      "stateMutability": "nonpayable",
      "type": "function"
    },
    {
      "inputs": [
        {
          "internalType": "address",
          "name": "from",
          "type": "address"
        },
        {
          "internalType": "address",
          "name": "to",
          "type": "address"
        },
        {
          "internalType": "uint256",
          "name": "tokenId",
          "type": "uint256"
        }
      ],
      "name": "safeTransferFrom",
      "outputs": [],
      "stateMutability": "nonpayable",
      "type": "function"
    },
    {
      "inputs": [
        {
          "internalType": "address",
          "name": "from",
          "type": "address"
        },
        {
          "internalType": "address",
          "name": "to",
          "type": "address"
        },
        {
          "internalType": "uint256",
          "name": "tokenId",
          "type": "uint256"
        },
        {
          "internalType": "bytes",
          "name": "data",
          "type": "bytes"
        }
      ],
      "name": "safeTransferFrom",
      "outputs": [],
      "stateMutability": "nonpayable",
      "type": "function"
    },
    {
      "inputs": [
        {
          "internalType": "address",
          "name": "operator",
          "type": "address"
        },
        {
          "internalType": "bool",
          "name": "approved",
          "type": "bool"
        }
      ],
      "name": "setApprovalForAll",
      "outputs": [],
      "stateMutability": "nonpayable",
      "type": "function"
    },
    {
      "inputs": [
        {
          "internalType": "bytes4",
          "name": "interfaceId",
          "type": "bytes4"
        }
      ],
      "name": "supportsInterface",
      "outputs": [
        {
          "internalType": "bool",
          "name": "",
          "type": "bool"
        }
      ],
      "stateMutability": "view",
      "type": "function"
    },
    {
      "inputs": [],
      "name": "symbol",
      "outputs": [
        {
          "internalType": "string",
          "name": "",
          "type": "string"
        }
      ],
      "stateMutability": "view",
      "type": "function"
    },
    {
      "inputs": [
        {
          "internalType": "uint256",
          "name": "tokenId",
          "type": "uint256"
        }
      ],
      "name": "tokenURI",
      "outputs": [
        {
          "internalType": "string",
          "name": "",
          "type": "string"
        }
      ],
      "stateMutability": "view",
      "type": "function"
    },
    {
      "inputs": [
        {
          "internalType": "address",
          "name": "from",
          "type": "address"
        },
        {
          "internalType": "address",
          "name": "to",
          "type": "address"
        },
        {
          "internalType": "uint256",
          "name": "tokenId",
          "type": "uint256"
        }
      ],
      "name": "transferFrom",
      "outputs": [],
      "stateMutability": "nonpayable",
      "type": "function"
    },
    {
      "inputs": [
        {
          "internalType": "address",
          "name": "newOwner",
          "type": "address"
        }
      ],
      "name": "transferOwnership",
      "outputs": [],
      "stateMutability": "nonpayable",
      "type": "function"
    },
    {
      "inputs": [
        {
          "internalType": "string",
          "name": "_brand",
          "type": "string"
        },
        {
          "internalType": "string",
          "name": "_model",
          "type": "string"
        },
        {
          "internalType": "string",
          "name": "_serialNumber",
          "type": "string"
        },
        {
          "internalType": "uint256",
          "name": "_price",
          "type": "uint256"
        },
        {
          "internalType": "string",
          "name": "_metadataURI",
          "type": "string"
        }
      ],
      "name": "createWatchNFT",
      "outputs": [],
      "stateMutability": "nonpayable",
      "type": "function"
    },
    {
      "inputs": [
        {
          "internalType": "uint256",
          "name": "_tokenId",
          "type": "uint256"
        },
        {
          "internalType": "address",
          "name": "_approved",
          "type": "address"
        },
        {
          "internalType": "uint256",
          "name": "_price",
          "type": "uint256"
        }
      ],
      "name": "approveForSale",
      "outputs": [],
      "stateMutability": "nonpayable",
      "type": "function"
    },
    {
      "inputs": [
        {
          "internalType": "uint256",
          "name": "_tokenId",
          "type": "uint256"
        },
        {
          "internalType": "address",
          "name": "_buyer",
          "type": "address"
        }
      ],
      "name": "sellWatchNFT",
      "outputs": [],
      "stateMutability": "nonpayable",
      "type": "function"
    },
    {
      "inputs": [
        {
          "internalType": "uint256",
          "name": "_tokenId",
          "type": "uint256"
        }
      ],
      "name": "getWatchOwnershipHistory",
      "outputs": [
        {
          "internalType": "address[]",
          "name": "",
          "type": "address[]"
        }
      ],
      "stateMutability": "view",
      "type": "function"
    },
    {
      "inputs": [
        {
          "internalType": "uint256",
          "name": "_tokenId",
          "type": "uint256"
        },
        {
          "internalType": "string",
          "name": "_newMetadataURI",
          "type": "string"
        }
      ],
      "name": "updateMetadataURI",
      "outputs": [],
      "stateMutability": "nonpayable",
      "type": "function"
    }
  ],
  "bytecode": "0x608060405234801562000010575f80fd5b50336040518060400160405280600b81526020017f4c757875727957617463680000000000000000000000000000000000000000008152506040518060400160405280600381526020017f4d544b0000000000000000000000000000000000000000000000000000000000815250815f90816200008e919062000455565b508060019081620000a0919062000455565b5050505f73ffffffffffffffffffffffffffffffffffffffff168173ffffffffffffffffffffffffffffffffffffffff160362000116575f6040517f1e4fbdf70000000000000000000000000000000000000000000000000000000081526004016200010d91906200057c565b60405180910390fd5b62000127816200012e60201b60201c565b5062000597565b5f60065f9054906101000a900473ffffffffffffffffffffffffffffffffffffffff1690508160065f6101000a81548173ffffffffffffffffffffffffffffffffffffffff021916908373ffffffffffffffffffffffffffffffffffffffff1602179055508173ffffffffffffffffffffffffffffffffffffffff168173ffffffffffffffffffffffffffffffffffffffff167f8be0079c531659141344cd1fd0a4f28419497f9722a3daafe3b4186f6b6457e060405160405180910390a35050565b5f81519050919050565b7f4e487b71000000000000000000000000000000000000000000000000000000005f52604160045260245ffd5b7f4e487b71000000000000000000000000000000000000000000000000000000005f52602260045260245ffd5b5f60028204905060018216806200026d57607f821691505b60208210810362000283576200028262000228565b5b50919050565b5f819050815f5260205f209050919050565b5f6020601f8301049050919050565b5f82821b905092915050565b5f60088302620002e77fffffffffffffffffffffffffffffffffffffffffffffffffffffffffffffffff82620002aa565b620002f38683620002aa565b95508019841693508086168417925050509392505050565b5f819050919050565b5f819050919050565b5f6200033d6200033762000331846200030b565b62000314565b6200030b565b9050919050565b5f819050919050565b62000358836200031d565b62000370620003678262000344565b848454620002b6565b825550505050565b5f90565b6200038662000378565b620003938184846200034d565b505050565b5b81811015620003ba57620003ae5f826200037c565b60018101905062000399565b5050565b601f8211156200040957620003d38162000289565b620003de846200029b565b81016020851015620003ee578190505b62000406620003fd856200029b565b83018262000398565b50505b505050565b5f82821c905092915050565b5f6200042b5f19846008026200040e565b1980831691505092915050565b5f6200044583836200041a565b9150826002028217905092915050565b6200046082620001f1565b67ffffffffffffffff8111156200047c576200047b620001fb565b5b62000488825462000255565b62000495828285620003be565b5f60209050601f831160018114620004cb575f8415620004b6578287015190505b620004c2858262000438565b86555062000531565b601f198416620004db8662000289565b5f5b828110156200050457848901518255600182019150602085019450602081019050620004dd565b8683101562000524578489015162000520601f8916826200041a565b8355505b6001600288020188555050505b505050505050565b5f73ffffffffffffffffffffffffffffffffffffffff82169050919050565b5f620005648262000539565b9050919050565b620005768162000558565b82525050565b5f602082019050620005915f8301846200056b565b92915050565b612f9780620005a55f395ff3fe608060405234801561000f575f80fd5b5060043610610135575f3560e01c8063715018a6116100b6578063a22cb4651161007a578063a22cb46514610335578063a2fe759014610351578063b88d4fde1461036d578063c87b56dd14610389578063e985e9c5146103b9578063f2fde38b146103e957610135565b8063715018a6146102a35780638da5cb5b146102ad5780638fe86b3f146102cb578063948a7ff7146102e757806395d89b411461031757610135565b80632ab9c20a116100fd5780632ab9c20a146101ef57806342842e0e1461020b578063520cabf0146102275780636352211e1461024357806370a082311461027357610135565b806301ffc9a71461013957806306fdde0314610169578063081812fc14610187578063095ea7b3146101b757806323b872dd146101d3575b5f80fd5b610153600480360381019061014e9190612093565b610405565b60405161016091906120d8565b60405180910390f35b6101716104e6565b60405161017e919061217b565b60405180910390f35b6101a1600480360381019061019c91906121ce565b610575565b6040516101ae9190612238565b60405180910390f35b6101d160048036038101906101cc919061227b565b610590565b005b6101ed60048036038101906101e891906122b9565b6105a6565b005b61020960048036038101906102049190612309565b6106a5565b005b610225600480360381019061022091906122b9565b61096a565b005b610241600480360381019061023c9190612347565b610989565b005b61025d600480360381019061025891906121ce565b610a82565b60405161026a9190612238565b60405180910390f35b61028d60048036038101906102889190612397565b610a93565b60405161029a91906123d1565b60405180910390f35b6102ab610b49565b005b6102b5610b5c565b6040516102c29190612238565b60405180910390f35b6102e560048036038101906102e09190612516565b610b84565b005b61030160048036038101906102fc91906121ce565b610c21565b60405161030e9190612627565b60405180910390f35b61031f610cbd565b60405161032c919061217b565b60405180910390f35b61034f600480360381019061034a9190612671565b610d4d565b005b61036b600480360381019061036691906126af565b610d63565b005b61038760048036038101906103829190612834565b610ee0565b005b6103a3600480360381019061039e91906121ce565b610efd565b6040516103b0919061217b565b60405180910390f35b6103d360048036038101906103ce91906128b4565b610f63565b6040516103e091906120d8565b60405180910390f35b61040360048036038101906103fe9190612397565b610ff1565b005b5f7f80ac58cd000000000000000000000000000000000000000000000000000000007bffffffffffffffffffffffffffffffffffffffffffffffffffffffff1916827bffffffffffffffffffffffffffffffffffffffffffffffffffffffff191614806104cf57507f5b5e139f000000000000000000000000000000000000000000000000000000007bffffffffffffffffffffffffffffffffffffffffffffffffffffffff1916827bffffffffffffffffffffffffffffffffffffffffffffffffffffffff1916145b806104df57506104de82611075565b5b9050919050565b60605f80546104f49061291f565b80601f01602080910402602001604051908101604052809291908181526020018280546105209061291f565b801561056b5780601f106105425761010080835404028352916020019161056b565b820191905f5260205f20905b81548152906001019060200180831161054e57829003601f168201915b5050505050905090565b5f61057f826110de565b5061058982611164565b9050919050565b6105a2828261059d61119d565b6111a4565b5050565b5f73ffffffffffffffffffffffffffffffffffffffff168273ffffffffffffffffffffffffffffffffffffffff1603610616575f6040517f64a0ae9200000000000000000000000000000000000000000000000000000000815260040161060d9190612238565b60405180910390fd5b5f610629838361062461119d565b6111b6565b90508373ffffffffffffffffffffffffffffffffffffffff168173ffffffffffffffffffffffffffffffffffffffff161461069f578382826040517f64283d7b0000000000000000000000000000000000000000000000000000000081526004016106969392919061294f565b60405180910390fd5b50505050565b8073ffffffffffffffffffffffffffffffffffffffff166106c583610575565b73ffffffffffffffffffffffffffffffffffffffff161461071d57336040517f8e4a23d60000000000000000000000000000000000000000000000000000000081526004016107149190612238565b60405180910390fd5b5f60085f8481526020019081526020015f206003015490505f606460058361074591906129b1565b61074f9190612a1f565b90505f61075b85610a82565b9050814710156107a45747826040517f03eb8b5400000000000000000000000000000000000000000000000000000000815260040161079b929190612a4f565b60405180910390fd5b8073ffffffffffffffffffffffffffffffffffffffff166108fc8390811502906040515f60405180830381858888f1935050505061081b5782826040517fb467f945000000000000000000000000000000000000000000000000000000008152600401610812929190612a4f565b60405180910390fd5b5f3390508073ffffffffffffffffffffffffffffffffffffffff166108fc84866108459190612a76565b90811502906040515f60405180830381858888f193505050506108ac5747838561086f9190612a76565b6040517f03eb8b540000000000000000000000000000000000000000000000000000000081526004016108a3929190612a4f565b60405180910390fd5b60095f8781526020019081526020015f2085908060018154018082558091505060019003905f5260205f20015f9091909190916101000a81548173ffffffffffffffffffffffffffffffffffffffff021916908373ffffffffffffffffffffffffffffffffffffffff1602179055506109263386886113c1565b857f8b4f450be4cae20a3982093f48265cc9c20f152b2e5cf6bc903326e1c103bd0b33878760405161095a93929190612aa9565b60405180910390a2505050505050565b61098483838360405180602001604052805f815250610ee0565b505050565b3373ffffffffffffffffffffffffffffffffffffffff166109a984610a82565b73ffffffffffffffffffffffffffffffffffffffff1614610a0b576109cd83610a82565b336040517f23295f0e000000000000000000000000000000000000000000000000000000008152600401610a02929190612ade565b60405180910390fd5b610a158284610590565b8060085f8581526020019081526020015f20600301819055508173ffffffffffffffffffffffffffffffffffffffff16837f99807fd8be41fce85a77939bfa9752c0b195ee15fa0f3d6c3b8077d8f40e062a83604051610a7591906123d1565b60405180910390a3505050565b5f610a8c826110de565b9050919050565b5f8073ffffffffffffffffffffffffffffffffffffffff168273ffffffffffffffffffffffffffffffffffffffff1603610b04575f6040517f89c62b64000000000000000000000000000000000000000000000000000000008152600401610afb9190612238565b60405180910390fd5b60035f8373ffffffffffffffffffffffffffffffffffffffff1673ffffffffffffffffffffffffffffffffffffffff1681526020019081526020015f20549050919050565b610b51611529565b610b5a5f6115b0565b565b5f60065f9054906101000a900473ffffffffffffffffffffffffffffffffffffffff16905090565b3373ffffffffffffffffffffffffffffffffffffffff16610ba483610a82565b73ffffffffffffffffffffffffffffffffffffffff1614610bfe5733826040517f58a5e222000000000000000000000000000000000000000000000000000000008152600401610bf5929190612b05565b60405180910390fd5b80600a5f8481526020019081526020015f209081610c1c9190612cc9565b505050565b606060095f8381526020019081526020015f20805480602002602001604051908101604052809291908181526020018280548015610cb157602002820191905f5260205f20905b815f9054906101000a900473ffffffffffffffffffffffffffffffffffffffff1673ffffffffffffffffffffffffffffffffffffffff1681526020019060010190808311610c68575b50505050509050919050565b606060018054610ccc9061291f565b80601f0160208091040260200160405190810160405280929190818152602001828054610cf89061291f565b8015610d435780601f10610d1a57610100808354040283529160200191610d43565b820191905f5260205f20905b815481529060010190602001808311610d2657829003601f168201915b5050505050905090565b610d5f610d5861119d565b8383611673565b5050565b60075f815480929190610d7590612d98565b91905055505f6007549050610d8a33826117dc565b5f60405180608001604052808881526020018781526020018681526020018581525090508060085f8481526020019081526020015f205f820151815f019081610dd39190612cc9565b506020820151816001019081610de99190612cc9565b506040820151816002019081610dff9190612cc9565b506060820151816003015590505060095f8381526020019081526020015f2033908060018154018082558091505060019003905f5260205f20015f9091909190916101000a81548173ffffffffffffffffffffffffffffffffffffffff021916908373ffffffffffffffffffffffffffffffffffffffff16021790555082600a5f8481526020019081526020015f209081610e9a9190612cc9565b50817f13c04169153d50af67350c1fead24e763293b9ebe54458283a0cd3d6189f2c45888888604051610ecf93929190612ddf565b60405180910390a250505050505050565b610eeb8484846105a6565b610ef7848484846118cf565b50505050565b6060610f08826110de565b505f610f12611a81565b90505f815111610f305760405180602001604052805f815250610f5b565b80610f3a84611a97565b604051602001610f4b929190612e63565b6040516020818303038152906040525b915050919050565b5f60055f8473ffffffffffffffffffffffffffffffffffffffff1673ffffffffffffffffffffffffffffffffffffffff1681526020019081526020015f205f8373ffffffffffffffffffffffffffffffffffffffff1673ffffffffffffffffffffffffffffffffffffffff1681526020019081526020015f205f9054906101000a900460ff16905092915050565b610ff9611529565b5f73ffffffffffffffffffffffffffffffffffffffff168173ffffffffffffffffffffffffffffffffffffffff1603611069575f6040517f1e4fbdf70000000000000000000000000000000000000000000000000000000081526004016110609190612238565b60405180910390fd5b611072816115b0565b50565b5f7f01ffc9a7000000000000000000000000000000000000000000000000000000007bffffffffffffffffffffffffffffffffffffffffffffffffffffffff1916827bffffffffffffffffffffffffffffffffffffffffffffffffffffffff1916149050919050565b5f806110e983611b61565b90505f73ffffffffffffffffffffffffffffffffffffffff168173ffffffffffffffffffffffffffffffffffffffff160361115b57826040517f7e27328900000000000000000000000000000000000000000000000000000000815260040161115291906123d1565b60405180910390fd5b80915050919050565b5f60045f8381526020019081526020015f205f9054906101000a900473ffffffffffffffffffffffffffffffffffffffff169050919050565b5f33905090565b6111b18383836001611b9a565b505050565b5f806111c184611b61565b90505f73ffffffffffffffffffffffffffffffffffffffff168373ffffffffffffffffffffffffffffffffffffffff161461120257611201818486611d59565b5b5f73ffffffffffffffffffffffffffffffffffffffff168173ffffffffffffffffffffffffffffffffffffffff161461128d576112415f855f80611b9a565b600160035f8373ffffffffffffffffffffffffffffffffffffffff1673ffffffffffffffffffffffffffffffffffffffff1681526020019081526020015f205f82825403925050819055505b5f73ffffffffffffffffffffffffffffffffffffffff168573ffffffffffffffffffffffffffffffffffffffff161461130c57600160035f8773ffffffffffffffffffffffffffffffffffffffff1673ffffffffffffffffffffffffffffffffffffffff1681526020019081526020015f205f82825401925050819055505b8460025f8681526020019081526020015f205f6101000a81548173ffffffffffffffffffffffffffffffffffffffff021916908373ffffffffffffffffffffffffffffffffffffffff160217905550838573ffffffffffffffffffffffffffffffffffffffff168273ffffffffffffffffffffffffffffffffffffffff167fddf252ad1be2c89b69c2b068fc378daa952ba7f163c4a11628f55a4df523b3ef60405160405180910390a4809150509392505050565b5f73ffffffffffffffffffffffffffffffffffffffff168273ffffffffffffffffffffffffffffffffffffffff1603611431575f6040517f64a0ae920000000000000000000000000000000000000000000000000000000081526004016114289190612238565b60405180910390fd5b5f61143d83835f6111b6565b90505f73ffffffffffffffffffffffffffffffffffffffff168173ffffffffffffffffffffffffffffffffffffffff16036114af57816040517f7e2732890000000000000000000000000000000000000000000000000000000081526004016114a691906123d1565b60405180910390fd5b8373ffffffffffffffffffffffffffffffffffffffff168173ffffffffffffffffffffffffffffffffffffffff1614611523578382826040517f64283d7b00000000000000000000000000000000000000000000000000000000815260040161151a9392919061294f565b60405180910390fd5b50505050565b61153161119d565b73ffffffffffffffffffffffffffffffffffffffff1661154f610b5c565b73ffffffffffffffffffffffffffffffffffffffff16146115ae5761157261119d565b6040517f118cdaa70000000000000000000000000000000000000000000000000000000081526004016115a59190612238565b60405180910390fd5b565b5f60065f9054906101000a900473ffffffffffffffffffffffffffffffffffffffff1690508160065f6101000a81548173ffffffffffffffffffffffffffffffffffffffff021916908373ffffffffffffffffffffffffffffffffffffffff1602179055508173ffffffffffffffffffffffffffffffffffffffff168173ffffffffffffffffffffffffffffffffffffffff167f8be0079c531659141344cd1fd0a4f28419497f9722a3daafe3b4186f6b6457e060405160405180910390a35050565b5f73ffffffffffffffffffffffffffffffffffffffff168273ffffffffffffffffffffffffffffffffffffffff16036116e357816040517f5b08ba180000000000000000000000000000000000000000000000000000000081526004016116da9190612238565b60405180910390fd5b8060055f8573ffffffffffffffffffffffffffffffffffffffff1673ffffffffffffffffffffffffffffffffffffffff1681526020019081526020015f205f8473ffffffffffffffffffffffffffffffffffffffff1673ffffffffffffffffffffffffffffffffffffffff1681526020019081526020015f205f6101000a81548160ff0219169083151502179055508173ffffffffffffffffffffffffffffffffffffffff168373ffffffffffffffffffffffffffffffffffffffff167f17307eab39ab6107e8899845ad3d59bd9653f200f220920489ca2b5937696c31836040516117cf91906120d8565b60405180910390a3505050565b5f73ffffffffffffffffffffffffffffffffffffffff168273ffffffffffffffffffffffffffffffffffffffff160361184c575f6040517f64a0ae920000000000000000000000000000000000000000000000000000000081526004016118439190612238565b60405180910390fd5b5f61185883835f6111b6565b90505f73ffffffffffffffffffffffffffffffffffffffff168173ffffffffffffffffffffffffffffffffffffffff16146118ca575f6040517f73c6ac6e0000000000000000000000000000000000000000000000000000000081526004016118c19190612238565b60405180910390fd5b505050565b5f8373ffffffffffffffffffffffffffffffffffffffff163b1115611a7b578273ffffffffffffffffffffffffffffffffffffffff1663150b7a0261191261119d565b8685856040518563ffffffff1660e01b81526004016119349493929190612ed8565b6020604051808303815f875af192505050801561196f57506040513d601f19601f8201168201806040525081019061196c9190612f36565b60015b6119f0573d805f811461199d576040519150601f19603f3d011682016040523d82523d5f602084013e6119a2565b606091505b505f8151036119e857836040517f64a0ae920000000000000000000000000000000000000000000000000000000081526004016119df9190612238565b60405180910390fd5b805181602001fd5b63150b7a0260e01b7bffffffffffffffffffffffffffffffffffffffffffffffffffffffff1916817bffffffffffffffffffffffffffffffffffffffffffffffffffffffff191614611a7957836040517f64a0ae92000000000000000000000000000000000000000000000000000000008152600401611a709190612238565b60405180910390fd5b505b50505050565b606060405180602001604052805f815250905090565b60605f6001611aa584611e1c565b0190505f8167ffffffffffffffff811115611ac357611ac26123f2565b5b6040519080825280601f01601f191660200182016040528015611af55781602001600182028036833780820191505090505b5090505f82602001820190505b600115611b56578080600190039150507f3031323334353637383961626364656600000000000000000000000000000000600a86061a8153600a8581611b4b57611b4a6129f2565b5b0494505f8503611b02575b819350505050919050565b5f60025f8381526020019081526020015f205f9054906101000a900473ffffffffffffffffffffffffffffffffffffffff169050919050565b8080611bd257505f73ffffffffffffffffffffffffffffffffffffffff168273ffffffffffffffffffffffffffffffffffffffff1614155b15611d04575f611be1846110de565b90505f73ffffffffffffffffffffffffffffffffffffffff168373ffffffffffffffffffffffffffffffffffffffff1614158015611c4b57508273ffffffffffffffffffffffffffffffffffffffff168173ffffffffffffffffffffffffffffffffffffffff1614155b8015611c5e5750611c5c8184610f63565b155b15611ca057826040517fa9fbf51f000000000000000000000000000000000000000000000000000000008152600401611c979190612238565b60405180910390fd5b8115611d0257838573ffffffffffffffffffffffffffffffffffffffff168273ffffffffffffffffffffffffffffffffffffffff167f8c5be1e5ebec7d5bd14f71427d1e84f3dd0314c0f7b2291e5b200ac8c7c3b92560405160405180910390a45b505b8360045f8581526020019081526020015f205f6101000a81548173ffffffffffffffffffffffffffffffffffffffff021916908373ffffffffffffffffffffffffffffffffffffffff16021790555050505050565b611d64838383611f6d565b611e17575f73ffffffffffffffffffffffffffffffffffffffff168373ffffffffffffffffffffffffffffffffffffffff1603611dd857806040517f7e273289000000000000000000000000000000000000000000000000000000008152600401611dcf91906123d1565b60405180910390fd5b81816040517f177e802f000000000000000000000000000000000000000000000000000000008152600401611e0e929190612b05565b60405180910390fd5b505050565b5f805f90507a184f03e93ff9f4daa797ed6e38ed64bf6a1f0100000000000000008310611e78577a184f03e93ff9f4daa797ed6e38ed64bf6a1f0100000000000000008381611e6e57611e6d6129f2565b5b0492506040810190505b6d04ee2d6d415b85acef81000000008310611eb5576d04ee2d6d415b85acef81000000008381611eab57611eaa6129f2565b5b0492506020810190505b662386f26fc100008310611ee457662386f26fc100008381611eda57611ed96129f2565b5b0492506010810190505b6305f5e1008310611f0d576305f5e1008381611f0357611f026129f2565b5b0492506008810190505b6127108310611f32576127108381611f2857611f276129f2565b5b0492506004810190505b60648310611f555760648381611f4b57611f4a6129f2565b5b0492506002810190505b600a8310611f64576001810190505b80915050919050565b5f8073ffffffffffffffffffffffffffffffffffffffff168373ffffffffffffffffffffffffffffffffffffffff161415801561202457508273ffffffffffffffffffffffffffffffffffffffff168473ffffffffffffffffffffffffffffffffffffffff161480611fe55750611fe48484610f63565b5b8061202357508273ffffffffffffffffffffffffffffffffffffffff1661200b83611164565b73ffffffffffffffffffffffffffffffffffffffff16145b5b90509392505050565b5f604051905090565b5f80fd5b5f80fd5b5f7fffffffff0000000000000000000000000000000000000000000000000000000082169050919050565b6120728161203e565b811461207c575f80fd5b50565b5f8135905061208d81612069565b92915050565b5f602082840312156120a8576120a7612036565b5b5f6120b58482850161207f565b91505092915050565b5f8115159050919050565b6120d2816120be565b82525050565b5f6020820190506120eb5f8301846120c9565b92915050565b5f81519050919050565b5f82825260208201905092915050565b5f5b8381101561212857808201518184015260208101905061210d565b5f8484015250505050565b5f601f19601f8301169050919050565b5f61214d826120f1565b61215781856120fb565b935061216781856020860161210b565b61217081612133565b840191505092915050565b5f6020820190508181035f8301526121938184612143565b905092915050565b5f819050919050565b6121ad8161219b565b81146121b7575f80fd5b50565b5f813590506121c8816121a4565b92915050565b5f602082840312156121e3576121e2612036565b5b5f6121f0848285016121ba565b91505092915050565b5f73ffffffffffffffffffffffffffffffffffffffff82169050919050565b5f612222826121f9565b9050919050565b61223281612218565b82525050565b5f60208201905061224b5f830184612229565b92915050565b61225a81612218565b8114612264575f80fd5b50565b5f8135905061227581612251565b92915050565b5f806040838503121561229157612290612036565b5b5f61229e85828601612267565b92505060206122af858286016121ba565b9150509250929050565b5f805f606084860312156122d0576122cf612036565b5b5f6122dd86828701612267565b93505060206122ee86828701612267565b92505060406122ff868287016121ba565b9150509250925092565b5f806040838503121561231f5761231e612036565b5b5f61232c858286016121ba565b925050602061233d85828601612267565b9150509250929050565b5f805f6060848603121561235e5761235d612036565b5b5f61236b868287016121ba565b935050602061237c86828701612267565b925050604061238d868287016121ba565b9150509250925092565b5f602082840312156123ac576123ab612036565b5b5f6123b984828501612267565b91505092915050565b6123cb8161219b565b82525050565b5f6020820190506123e45f8301846123c2565b92915050565b5f80fd5b5f80fd5b7f4e487b71000000000000000000000000000000000000000000000000000000005f52604160045260245ffd5b61242882612133565b810181811067ffffffffffffffff82111715612447576124466123f2565b5b80604052505050565b5f61245961202d565b9050612465828261241f565b919050565b5f67ffffffffffffffff821115612484576124836123f2565b5b61248d82612133565b9050602081019050919050565b828183375f83830152505050565b5f6124ba6124b58461246a565b612450565b9050828152602081018484840111156124d6576124d56123ee565b5b6124e184828561249a565b509392505050565b5f82601f8301126124fd576124fc6123ea565b5b813561250d8482602086016124a8565b91505092915050565b5f806040838503121561252c5761252b612036565b5b5f612539858286016121ba565b925050602083013567ffffffffffffffff81111561255a5761255961203a565b5b612566858286016124e9565b9150509250929050565b5f81519050919050565b5f82825260208201905092915050565b5f819050602082019050919050565b6125a281612218565b82525050565b5f6125b38383612599565b60208301905092915050565b5f602082019050919050565b5f6125d582612570565b6125df818561257a565b93506125ea8361258a565b805f5b8381101561261a57815161260188826125a8565b975061260c836125bf565b9250506001810190506125ed565b5085935050505092915050565b5f6020820190508181035f83015261263f81846125cb565b905092915050565b612650816120be565b811461265a575f80fd5b50565b5f8135905061266b81612647565b92915050565b5f806040838503121561268757612686612036565b5b5f61269485828601612267565b92505060206126a58582860161265d565b9150509250929050565b5f805f805f60a086880312156126c8576126c7612036565b5b5f86013567ffffffffffffffff8111156126e5576126e461203a565b5b6126f1888289016124e9565b955050602086013567ffffffffffffffff8111156127125761271161203a565b5b61271e888289016124e9565b945050604086013567ffffffffffffffff81111561273f5761273e61203a565b5b61274b888289016124e9565b935050606061275c888289016121ba565b925050608086013567ffffffffffffffff81111561277d5761277c61203a565b5b612789888289016124e9565b9150509295509295909350565b5f67ffffffffffffffff8211156127b0576127af6123f2565b5b6127b982612133565b9050602081019050919050565b5f6127d86127d384612796565b612450565b9050828152602081018484840111156127f4576127f36123ee565b5b6127ff84828561249a565b509392505050565b5f82601f83011261281b5761281a6123ea565b5b813561282b8482602086016127c6565b91505092915050565b5f805f806080858703121561284c5761284b612036565b5b5f61285987828801612267565b945050602061286a87828801612267565b935050604061287b878288016121ba565b925050606085013567ffffffffffffffff81111561289c5761289b61203a565b5b6128a887828801612807565b91505092959194509250565b5f80604083850312156128ca576128c9612036565b5b5f6128d785828601612267565b92505060206128e885828601612267565b9150509250929050565b7f4e487b71000000000000000000000000000000000000000000000000000000005f52602260045260245ffd5b5f600282049050600182168061293657607f821691505b602082108103612949576129486128f2565b5b50919050565b5f6060820190506129625f830186612229565b61296f60208301856123c2565b61297c6040830184612229565b949350505050565b7f4e487b71000000000000000000000000000000000000000000000000000000005f52601160045260245ffd5b5f6129bb8261219b565b91506129c68361219b565b92508282026129d48161219b565b915082820484148315176129eb576129ea612984565b5b5092915050565b7f4e487b71000000000000000000000000000000000000000000000000000000005f52601260045260245ffd5b5f612a298261219b565b9150612a348361219b565b925082612a4457612a436129f2565b5b828204905092915050565b5f604082019050612a625f8301856123c2565b612a6f60208301846123c2565b9392505050565b5f612a808261219b565b9150612a8b8361219b565b9250828203905081811115612aa357612aa2612984565b5b92915050565b5f606082019050612abc5f830186612229565b612ac96020830185612229565b612ad660408301846123c2565b949350505050565b5f604082019050612af15f830185612229565b612afe6020830184612229565b9392505050565b5f604082019050612b185f830185612229565b612b2560208301846123c2565b9392505050565b5f819050815f5260205f209050919050565b5f6020601f8301049050919050565b5f82821b905092915050565b5f60088302612b887fffffffffffffffffffffffffffffffffffffffffffffffffffffffffffffffff82612b4d565b612b928683612b4d565b95508019841693508086168417925050509392505050565b5f819050919050565b5f612bcd612bc8612bc38461219b565b612baa565b61219b565b9050919050565b5f819050919050565b612be683612bb3565b612bfa612bf282612bd4565b848454612b59565b825550505050565b5f90565b612c0e612c02565b612c19818484612bdd565b505050565b5b81811015612c3c57612c315f82612c06565b600181019050612c1f565b5050565b601f821115612c8157612c5281612b2c565b612c5b84612b3e565b81016020851015612c6a578190505b612c7e612c7685612b3e565b830182612c1e565b50505b505050565b5f82821c905092915050565b5f612ca15f1984600802612c86565b1980831691505092915050565b5f612cb98383612c92565b9150826002028217905092915050565b612cd2826120f1565b67ffffffffffffffff811115612ceb57612cea6123f2565b5b612cf5825461291f565b612d00828285612c40565b5f60209050601f831160018114612d31575f8415612d1f578287015190505b612d298582612cae565b865550612d90565b601f198416612d3f86612b2c565b5f5b82811015612d6657848901518255600182019150602085019450602081019050612d41565b86831015612d835784890151612d7f601f891682612c92565b8355505b6001600288020188555050505b505050505050565b5f612da28261219b565b91507fffffffffffffffffffffffffffffffffffffffffffffffffffffffffffffffff8203612dd457612dd3612984565b5b600182019050919050565b5f6060820190508181035f830152612df78186612143565b90508181036020830152612e0b8185612143565b90508181036040830152612e1f8184612143565b9050949350505050565b5f81905092915050565b5f612e3d826120f1565b612e478185612e29565b9350612e5781856020860161210b565b80840191505092915050565b5f612e6e8285612e33565b9150612e7a8284612e33565b91508190509392505050565b5f81519050919050565b5f82825260208201905092915050565b5f612eaa82612e86565b612eb48185612e90565b9350612ec481856020860161210b565b612ecd81612133565b840191505092915050565b5f608082019050612eeb5f830187612229565b612ef86020830186612229565b612f0560408301856123c2565b8181036060830152612f178184612ea0565b905095945050505050565b5f81519050612f3081612069565b92915050565b5f60208284031215612f4b57612f4a612036565b5b5f612f5884828501612f22565b9150509291505056fea2646970667358221220d2c0962fe695644ac4621f45c4b73ead3989dd07d1f7861fc0f57043e695c36964736f6c63430008150033",
  "immutableReferences": {},
  "source": "// SPDX-License-Identifier: MIT\npragma solidity ^0.8.19;\n\nimport \"@openzeppelin/contracts/token/ERC721/ERC721.sol\";\nimport \"@openzeppelin/contracts/token/ERC721/extensions/ERC721Enumerable.sol\";\nimport \"@openzeppelin/contracts/access/Ownable.sol\";\n\ncontract LuxuryWatch is ERC721, Ownable {\n\n    constructor()\n        ERC721(\"LuxuryWatch\", \"MTK\")\n        Ownable(msg.sender)\n\n    {}\n\n\n    struct Watch {\n        string brand;\n        string model;\n        string serialNumber;\n        uint256 price;\n    }\n\n    uint256  constant royaltyPercentage = 5;\n    uint256 _tokenIds;\n    mapping(uint256 => Watch)  watchInfo;\n    mapping(uint256 => address[])  watchOwnershipHistory;\n    mapping(uint256 => string)  watchMetadataURI;\n\n    // Dfinition des erreurs personnalises\n    error Unauthorized(address caller);\n    error PriceTooLow(uint256 requestedPrice, uint256 currentPrice);\n    error TokenNotExist(uint256 tokenId);\n    error NotOwner(address owner, address caller);\n    error InsufficientFunds(uint256 available, uint256 required);\n    error NotTokenOwner(address caller, uint256 tokenId);\n\n\n    // vnements\n    event WatchNFTCreated(uint256 indexed tokenId, string name, string model, string serialNumber);\n    event WatchNFTSold(uint256 indexed tokenId, address from, address to, uint256 price);\n    event ApprovalForSale(uint256 indexed tokenId, address indexed approved, uint256 price);\n\n    //constructor() ERC721(\"LuxuryWatchNFT\", \"LWNFT\") {}\n\n    function createWatchNFT(string memory _brand, string memory _model, string memory _serialNumber, uint256 _price, string memory _metadataURI) public  {\n        _tokenIds++;\n        uint256 newItemId = _tokenIds;\n        _mint(msg.sender, newItemId);\n\n        Watch memory newWatch = Watch({\n            brand: _brand,\n            model: _model,\n            serialNumber: _serialNumber,\n            price: _price\n        });\n\n        watchInfo[newItemId] = newWatch;\n        watchOwnershipHistory[newItemId].push(msg.sender);\n        watchMetadataURI[newItemId] = _metadataURI;\n\n        emit WatchNFTCreated(newItemId, _brand, _model, _serialNumber);\n    }\n\n    function approveForSale(uint256 _tokenId, address _approved, uint256 _price) public {\n        if (ownerOf(_tokenId) != msg.sender) revert NotOwner(ownerOf(_tokenId), msg.sender);\n        approve(_approved, _tokenId);\n        watchInfo[_tokenId].price = _price;\n        emit ApprovalForSale(_tokenId, _approved, _price);\n    }\n\n    function sellWatchNFT(uint256 _tokenId, address _buyer) public {\n        if (getApproved(_tokenId) != _buyer) revert Unauthorized(msg.sender);\n        uint256 salePrice = watchInfo[_tokenId].price;\n        uint256 royaltyFee = (salePrice * royaltyPercentage) / 100;\n\n        address payable creator = payable(ownerOf(_tokenId));\n        if (address(this).balance < royaltyFee) revert InsufficientFunds(address(this).balance, royaltyFee);\n        if (!creator.send(royaltyFee)) revert PriceTooLow(salePrice, royaltyFee);\n\n        address payable seller = payable(msg.sender);\n        if (!seller.send(salePrice - royaltyFee)) revert InsufficientFunds(address(this).balance, salePrice - royaltyFee);\n\n        watchOwnershipHistory[_tokenId].push(_buyer);\n        _transfer(msg.sender, _buyer, _tokenId);\n\n        emit WatchNFTSold(_tokenId, msg.sender, _buyer, salePrice);\n    }\n\n      function getWatchOwnershipHistory(uint256 _tokenId) public view returns (address[] memory) {\n        return watchOwnershipHistory[_tokenId];\n    }\n\n    function updateMetadataURI(uint256 _tokenId, string memory _newMetadataURI) public {\n    if (ownerOf(_tokenId) != msg.sender) revert NotTokenOwner(msg.sender, _tokenId);\n    watchMetadataURI[_tokenId] = _newMetadataURI;\n    \n    }\n\n}\n\n    // Autres fonctions si besoin\n\n\n//fonction approveForSale permet au propritaire d'un NFT de donner l'approbation  un autre utilisateur pour vendre la montre NFT.\n//fonction sellWatchNFT a t modifie pour inclure la logique de paiement des royalties au crateur original du NFT.\n//Un historique de proprit est enregistr pour chaque NFT dans le mapping watchOwnershipHistory.\n//fonction updateMetadataURI permet au propritaire du NFT de mettre  jour\n\n// RSUM GNRAL DU CODE :\n//Ce code est un point de dpart qui cre un token NFT pour chaque montre avec des dtails comme le nom, le modle, le numro de srie pour la traabilit, et le prix.\n//Il comprend des vnements pour la cration et la vente.",
  "sourcePath": "/Users/clementarthaud/Documents/VSCODE/blockchain/Dapp-SolidityV1/contracts/SC_V1.sol",
  "compiler": {
    "name": "solc",
    "version": "0.8.21+commit.d9974bed.Emscripten.clang"
  },
  "schemaVersion": "3.4.16",
  "updatedAt": "2023-12-17T16:25:10.856Z",
  "devdoc": {
    "errors": {
      "ERC721IncorrectOwner(address,uint256,address)": [
        {
          "details": "Indicates an error related to the ownership over a particular token. Used in transfers.",
          "params": {
            "owner": "Address of the current owner of a token.",
            "sender": "Address whose tokens are being transferred.",
            "tokenId": "Identifier number of a token."
          }
        }
      ],
      "ERC721InsufficientApproval(address,uint256)": [
        {
          "details": "Indicates a failure with the `operator`s approval. Used in transfers.",
          "params": {
            "operator": "Address that may be allowed to operate on tokens without being their owner.",
            "tokenId": "Identifier number of a token."
          }
        }
      ],
      "ERC721InvalidApprover(address)": [
        {
          "details": "Indicates a failure with the `approver` of a token to be approved. Used in approvals.",
          "params": {
            "approver": "Address initiating an approval operation."
          }
        }
      ],
      "ERC721InvalidOperator(address)": [
        {
          "details": "Indicates a failure with the `operator` to be approved. Used in approvals.",
          "params": {
            "operator": "Address that may be allowed to operate on tokens without being their owner."
          }
        }
      ],
      "ERC721InvalidOwner(address)": [
        {
          "details": "Indicates that an address can't be an owner. For example, `address(0)` is a forbidden owner in EIP-20. Used in balance queries.",
          "params": {
            "owner": "Address of the current owner of a token."
          }
        }
      ],
      "ERC721InvalidReceiver(address)": [
        {
          "details": "Indicates a failure with the token `receiver`. Used in transfers.",
          "params": {
            "receiver": "Address to which tokens are being transferred."
          }
        }
      ],
      "ERC721InvalidSender(address)": [
        {
          "details": "Indicates a failure with the token `sender`. Used in transfers.",
          "params": {
            "sender": "Address whose tokens are being transferred."
          }
        }
      ],
      "ERC721NonexistentToken(uint256)": [
        {
          "details": "Indicates a `tokenId` whose `owner` is the zero address.",
          "params": {
            "tokenId": "Identifier number of a token."
          }
        }
      ],
      "OwnableInvalidOwner(address)": [
        {
          "details": "The owner is not a valid owner account. (eg. `address(0)`)"
        }
      ],
      "OwnableUnauthorizedAccount(address)": [
        {
          "details": "The caller account is not authorized to perform an operation."
        }
      ]
    },
    "events": {
      "Approval(address,address,uint256)": {
        "details": "Emitted when `owner` enables `approved` to manage the `tokenId` token."
      },
      "ApprovalForAll(address,address,bool)": {
        "details": "Emitted when `owner` enables or disables (`approved`) `operator` to manage all of its assets."
      },
      "Transfer(address,address,uint256)": {
        "details": "Emitted when `tokenId` token is transferred from `from` to `to`."
      }
    },
    "kind": "dev",
    "methods": {
      "approve(address,uint256)": {
        "details": "See {IERC721-approve}."
      },
      "balanceOf(address)": {
        "details": "See {IERC721-balanceOf}."
      },
      "getApproved(uint256)": {
        "details": "See {IERC721-getApproved}."
      },
      "isApprovedForAll(address,address)": {
        "details": "See {IERC721-isApprovedForAll}."
      },
      "name()": {
        "details": "See {IERC721Metadata-name}."
      },
      "owner()": {
        "details": "Returns the address of the current owner."
      },
      "ownerOf(uint256)": {
        "details": "See {IERC721-ownerOf}."
      },
      "renounceOwnership()": {
        "details": "Leaves the contract without owner. It will not be possible to call `onlyOwner` functions. Can only be called by the current owner. NOTE: Renouncing ownership will leave the contract without an owner, thereby disabling any functionality that is only available to the owner."
      },
      "safeTransferFrom(address,address,uint256)": {
        "details": "See {IERC721-safeTransferFrom}."
      },
      "safeTransferFrom(address,address,uint256,bytes)": {
        "details": "See {IERC721-safeTransferFrom}."
      },
      "setApprovalForAll(address,bool)": {
        "details": "See {IERC721-setApprovalForAll}."
      },
      "supportsInterface(bytes4)": {
        "details": "See {IERC165-supportsInterface}."
      },
      "symbol()": {
        "details": "See {IERC721Metadata-symbol}."
      },
      "tokenURI(uint256)": {
        "details": "See {IERC721Metadata-tokenURI}."
      },
      "transferFrom(address,address,uint256)": {
        "details": "See {IERC721-transferFrom}."
      },
      "transferOwnership(address)": {
        "details": "Transfers ownership of the contract to a new account (`newOwner`). Can only be called by the current owner."
      }
    },
    "version": 1
  },
  "userdoc": {
    "kind": "user",
    "methods": {},
    "version": 1
  }
}